:020000040800F2
:10000000F8320220811B0008191700086D1B000838
:100010006D1B00086D1B00086D1B00080000000030
:10002000000000000000000000000000511C00085B
:100030006D1B000800000000091C0008BD880008B6
:10004000911D0008911D0008911D0008911D0008D8
:10005000911D0008911D0008911D0008911D0008C8
:10006000911D0008911D0008911D0008911D0008B8
:10007000911D0008911D0008911D0008911D0008A8
:10008000911D0008911D0008911D0008911D000898
:10009000911D0008911D0008911D0008911D000888
:1000A000911D0008911D0008911D0008911D000878
:1000B000911D0008911D0008911D0008911D000868
:1000C000911D0008911D0008911D0008911D000858
:1000D000911D0008911D0008911D0008911D000848
:1000E000911D0008911D0008911D0008911D000838
:1000F000911D0008911D0008911D0008911D000828
:10010000911D0008911D0008911D0008911D000817
:10011000911D0008911D0008911D0008911D000807
:10012000911D0008911D0008911D0008911D0008F7
:10013000911D0008911D0008911D0008911D0008E7
:10014000911D0008911D0008911D0008911D0008D7
:10015000911D0008911D0008911D0008911D0008C7
:10016000911D0008911D0008911D0008911D0008B7
:10017000911D0008911D0008911D0008911D0008A7
:10018000911D0008911D0008911D0008911D000897
:10019000911D0008911D0008911D0008911D000887
:1001A000911D0008911D0008911D0008911D000877
:1001B000911D0008911D0008911D0008911D000867
:0801C000911D0008911D0008CB
:1001C80053B94AB9002908BF00281CBF4FF0FF31B6
:1001D8004FF0FF3000F00CB8ADF1080C6DE904CE1B
:1001E80000F008F8DDF804E0DDE9022304B0704708
:1001F800704700BF2DE9F04786468C460846089EA2
:10020800154674461946002B40F0C2808542B2FA62
:1002180082F245D94AB1C2F1200300FA02FC2EFA53
:1002280003F3954043EA0C0C94404FEA154EA8B2EC
:10023800BCFBFEF8230C0EFB18CC08FB00F943EAC4
:100248000C43994528D9EB1808F1FF3704D2994592
:1002580002D9A8F102072B44A3EB0903A4B2B3FB0C
:10026800FEFC0EFB1C330CFB00F044EA0344A042E6
:1002780014D92C190CF1FF3304D2A04202D9ACF1E5
:1002880002032C44241A43EA07401EB1D440002339
:1002980034607360BDE8F0874746DDE76346F1E701
:1002A80092BB431B01214FEA154EAFB2B3FBFEFCD4
:1002B800200C0EFB1C330CFB07F840EA034398455F
:1002C80062D9EB180CF1FF3004D2984502D9ACF191
:1002D80002002B44A3EB0803A4B2B3FBFEFC0EFB05
:1002E8001C330CFB07F744EA0344A7424ED92C19E8
:1002F8000CF1FF3304D2A74202D9ACF102032C441B
:10030800E41B43EA0040C0E7C2F1200320FA03F1EE
:10031800954090402EFA03F303434FEA154EAFB2CF
:10032800B1FBFEFC0EFB1C10190C0CFB07F841EA94
:100338000041884504FA02F422D969180CF1FF300B
:1003480004D2884502D9ACF102002944A1EB080186
:100358009BB2B1FBFEFC0EFB1C110CFB07F743EA3A
:1003680001439F420ED9EB180CF1FF3104D29F4292
:1003780002D9ACF102012B44DB1B41EA004192E7B0
:100388006046E3E76146F7E76046A3E76346B7E7F9
:10039800834206D916B9002108467BE7C6E900E082
:1003A800F9E7B3FA83F78FB9834201D3724508D8C6
:1003B800BEEB020460EB030301209C461EB900213A
:1003C80068E73846FAE7C6E9004CF8E7C7F1200CB9
:1003D800BB4022FA0CF41C432EFA0CF120FA0CF361
:1003E800B84001434FEA14490EFA07F5B3FBF9F890
:1003F8001FFA84FE09FB18300B0C08FB0EFA43EABF
:1004080000439A4502FA07F240D9E31808F1FF3091
:1004180004D29A4502D9A8F102002344A3EB0A03A7
:1004280089B2B3FBF9F809FB183308FB0EFE41EA61
:1004380003418E452CD9611808F1FF3304D28E454B
:1004480002D9A8F10203214443EA0040A0FB029824
:10045800A1EB0E014145CE46434602D306D14D4598
:1004680004D2B9EB020E68EB04030138002EA6D0C3
:10047800B5EB0E0261EB030101FA0CFC22FA07F35B
:100488004CEA0303F940C6E9003198E74046C5E75E
:100498004346D9E770B5154C4FF42022012126694F
:1004A8002046A568336823F0020333602B68984719
:1004B80033689B074FF0020154BF2B69EB68204655
:1004C80098470B4C204634F024FD68B100F012F830
:1004D80000F04CF818F07EFFA3685B680BB120466B
:1004E800984718F077FFFCE770BD00BF885C0308E9
:1004F800A05D030837B518F08DFA0446052018F0FA
:1005080039FD0546002018F035FD0D4B02462946F9
:1005180000932046002313F06BF90146204627F08C
:1005280097FB00F023F800200AF096FF054B1860AF
:10053800054B186803B0BDE8304027F0B1BB00BFD9
:10054800346F0308A0350120B83501200122024884
:10055800114621F03CBA00BF885C03080022012143
:10056800014821F034BA00BF885C03082DE9F04146
:100578000020704E0AF070FF10216F4C306028F098
:10058800B6F830681BF032FB6C49206033F0DAF9BA
:10059800206842F2D17128F0B0FF206842F2D17190
:1005A800674D28F0C1FF20686FF06601654F28F09D
:1005B8006BFF20686FF0050128F07DFF2068092196
:1005C80028F0F7FF20684FF4803128F098FA206867
:1005D800102128F08CF86421206833F065FA30681F
:1005E8001AF0A0F84B21286028F087FF28682421FA
:1005F80028F09AFF28683821534C28F045FF2868CE
:10060800262128F058FF2868092128F0D2FF2868F9
:100618004FF4806128F073FA2868102128F067F8F1
:100628002868002240F2E4712AF010FD0022FF2120
:1006380028682AF01AFD30681AF074F84B212060F7
:1006480028F05BFF2068242128F06EFF2068A8218D
:1006580028F01AFF2068262128F02DFF206809219C
:1006680028F0A7FF20684FF4806128F048FA206836
:10067800102128F03CF8206800224FF600012AF0EB
:10068800E5FC0022FF2120682AF0EFFC30681CF00E
:1006980015FB42F2D171386028F02FFF386842F21A
:1006A800D17128F041FF3868372128F0EDFE38680D
:1006B800262128F000FF3868092128F07AFF23490D
:1006C800386833F0AFFA3068214E1CF0F7FA42F27E
:1006D800D171306028F011FF306842F2D17128F0F2
:1006E80023FF3068A92128F0CFFE3068272128F0A1
:1006F800E2FE3068092128F05CFF3068154933F0C4
:1007080091FA306800224FF0FF312AF0B8FC3068C7
:100718000022FF212AF0C2FC00230F491A4628684C
:1007280027F014FB002320681A460C49BDE8F04165
:1007380027F00CBBB8350120B4350120106203083E
:10074800B0350120A8350120AC35012024E00A0885
:10075800A435012027E00A0897190208B7190208EA
:1007680030B5C0430A440C4D914201D1C04330BD5D
:1007780011F8013B83EA000404F00F0455F8244003
:1007880084EA101080EA131303F00F0355F823309E
:1007980083EA1010E8E700BF1C6203082DE9F04F58
:1007A80095B0044600AFD7F878B0BB61CBF3C0036F
:1007B8007A6239627B6151B903784678807800EBB8
:1007C800830020443B6A9E421BD8031B3B6294F87B
:1007D800029094F803A04E46B9F1000F02D01BF026
:1007E800010F18D1BAF1000F2BD17B6A1BB1BA697E
:1007F8002046396A98473D6A28465437BD46BDE8C1
:10080800F08F451C284621F06BFF3B6A013001330D
:1008180028443B62D6E725786368AA00FB6104EBAD
:1008280085017B6A3A61002B40F0FF803D6A0E46E5
:1008380009EB01034FF00008B3424BD101EB090665
:1008480010E01BF0020FD0D02578AB0004EB850137
:100858003B616368FB617B6A002B74D13D6A01EBE5
:10086800090698461BF0050F06EB4A0A0CBF02233F
:1008780001237B620BF002033B625645BCD016F89D
:10088800021B16F8013C54F82390AD4B994502D34E
:10089800AC4B994536D37B69002B40D0F86921F0E1
:1008A80006FB00283BD0E9468AB06A46A64B53614E
:1008B800FB69C2E906314FF400731384A34B42F875
:1008C800103F00234FF41251A148023D00F04CFEA6
:1008D800CD46D2E716F8012B54F82200C7E90813D1
:1008E80021F0FEFEFA6F0130D7E9081342B1D7F8BC
:1008F800802090453EBFFA6F22F8180008F10108E1
:10090800054499E77B6923B1F86921F0D0FA0028FA
:10091800C9D11BF0010F05D17B6AED1AADE73B6A1F
:10092800002BAAD0484621F0DBFEFB6F4BB1D7F86D
:10093800803098453FBF431CFA6F22F8183008F101
:100948000108054499E7B9F1000F73D01BF00406BC
:1009580073D0C846002607F140004A46F96021F0E6
:100968000CFFF9684FEA4A0301EB0905BB6005EB88
:100978004A03FB600BF002037B60FB689D425ED17B
:1009880023781BF0020FFB6108BF4FEA5801637818
:1009980018BF00211BF0010F06EB0302D2B240F092
:1009A8009D801BF0040F14BF4046002094F802B04D
:1009B80094F803A07B616270A0702046E170BA6968
:1009C80039697B6A9847051EFFF616AFFB694146F1
:1009D800BA6907F1400023707B6984F802B063703C
:1009E80084F803A07B6A9847B0F10008C0F2A3809E
:1009F8003B6ABA69A3EB09013B69F868C91ABB6885
:100A0800C91A7B6A98470028C0F29780A8444FF01B
:100A1800000B07F1300A08EB0005B34560D300214D
:100A2800BA697B6A08469847E6E64FF0000807F17E
:100A3800300092E74E46C84694E7B04692E715F86C
:100A4800021B3F4A15F801AC54F82A30934202D3EE
:100A58003C4A93421CD37B6923B1F86921F027FAF9
:100A680000288AD17B68F3B908F1280207F1280029
:100A780008F1010308F1020802445FFA88F802F855
:100A8800101C07F1500252FA83F303F810AC74E714
:100A98007B692BB1F86921F00AFA00287FF46DAF61
:100AA8001BF0010F09D006F1280207F12801731C79
:100AB800561806F820ACDEB25FE71BF0040F3FF4CF
:100AC8005CAF08F1280207F1280108F1010302EBE5
:100AD800010808F810AC5FFA83F84EE7002065E7D4
:100AE8001BF80A3054F8239087F82F30FB6FFBB1BE
:100AF80033F81B80BA69012107F12F007B6A9847F8
:100B080000281ADB0544B8F1000F06D1484621F049
:100B1800E7FD00F101081FFA88F8BA69414648461E
:100B28007B6A9847002808DB05440BF1010B74E742
:100B3800D7F87C80DEE745465EE605465CE600BF02
:100B4800DC5A0308EC230B082BE00A080400000118
:100B58004861030830B5002587B00446009505951F
:100B6800CDE9030103A9054800F08AF8DDE904305E
:100B78009842B8BF255407B030BD00BF011F020816
:100B880070B54FF0FF334FF0FF321B48002520F0BF
:100B980037F91A4BBFF35B8F1A68BFF35B8F72B1DB
:100BA80001352833042DF5D11FF0A0FA4FF0FF3599
:100BB80017230360104820F0E7F8284670BD282462
:100BC800BFF35B8F6C4353E8000F013043E800012B
:100BD8000029F8D10A4EBFF35B8F331932515A609E
:100BE80004F10C00304434F0D0FB04F12000304410
:100BF80034F07FFDDEE700BF2C0A0120C435012058
:100C0800BC35012010B4044610462822084B544332
:100C18001A191951506040B1C26832B10C3440F20F
:100C28000512234410BC21F090B910BC704700BFD6
:100C3800BC35012028231149434308330B4430B500
:100C4800BFF35B8F1A68BFF35B8FB2B1541EBFF35B
:100C58005B8F53E8005F954204D143E8004CBCF138
:100C6800000FF6D1BFF35B8FEAD1012A05D1282303
:100C7800584300230A180B50536030BDBC3501207F
:100C88002DE9F04F1C4687B0531E81468A460093D3
:100C9800009B58785D1C252817D11E464FF0000C84
:100CA8004FF0FF370236634662463D46317800967C
:100CB800392950D81F290FD8002900F0BB81514687
:100CC8002520C8475146307888E0002800F0B281D6
:100CD8005146C8470095DBE7A1F120001928EED856
:100CE8000FF2040E5EF820F0590D0008C70C00083A
:100CF800C70C0008590D0008C70C0008E10D0008D2
:100D0800C70C0008C70C0008C70C0008C70C00086F
:100D18001D0E0008590D0008C70C00082F0E00080A
:100D2800E90D0008C70C0008F10D00080D0E0008B9
:100D38000D0E00080D0E00080D0E00080D0E00081F
:100D48000D0E00080D0E00080D0E00080D0E00080F
:100D58008C460136AAE7582900F0DD80A1F163002E
:100D68005FFA80FEBEF1170FA9D81728A7D80FF28F
:100D7800080E5EF820F000BFBF0F0008530E0008F1
:100D8800C70C0008C70C0008C70C0008330E000881
:100D9800530E0008C70C0008C70C0008330E0008E3
:100DA800C70C0008C70C0008C70C0008FD0E000897
:100DB800C70C0008C70C0008930F0008C70C0008F0
:100DC800530E0008C70C0008C70C0008FD0E0008E9
:100DD800C70C0008330E000851462520C84757E7BE
:100DE80002F0FE020027B4E7002D0BDA002F0BDA21
:100DF800002A00F0178125EAE5750A2000FB051591
:100E0800303DA6E7002FF6DB0A2000FB0711A1F111
:100E180030079EE7002F54F8041B80F20581002953
:100E280080F204814D42022293E7682903D1682B9E
:100E380006D148238DE76C2902D16C2B00F0F8808D
:100E4800002B7FF43CAF0B4683E77A2B05D1231D9B
:100E5800752921681C461AD10FE06C2BF7D04C2B52
:100E6800F5D10734752924F00704D4E9003004F1DA
:100E7800080408D100287DD11946BCF1200F31D1D2
:100E8800013D6E4B08E0B0EBE37F73D119460029B2
:100E9800F3DA4942013D6A4B0DF1160C00204FF080
:100EA8000A0EB1FBFEF60EFB161808F130080CF816
:100EB800018D884631460646B8F1090F00F1FF302A
:100EC800EFD806F11801C6F10108002F0DEB010655
:100ED800A6F1030668DAD10778D4A7EB080BA5EBCF
:100EE800080513E0BCF12B0F06BF05F1FF35554B84
:100EF800554BD1E770290DD154F8040BA0B9053D25
:100F08004FF00508514E6FF0040B4F4B92076BD40E
:100F18002F4662E078216C2B21D154F8040BBCF1E8
:100F2800230F30D18E062CD5494B023D01F06001CC
:100F38000DF1160E0026393900F00F0C4FEA101883
:100F4800BCF1090F88BF8C440F280CF1300C0EF847
:100F580001CD06F1FF3CB4D966464046ECE74C2B80
:100F6800DBD1E31D23F007031C465B6854F8080B2C
:100F7800002BD4D0033D4FF00308364E6FF0020B20
:100F8800C3E7354BD1E7304BD0E754F8046B0192F7
:100F9800304621F0A5FB002F8046019A02DBB842BB
:100FA800A8BFB846284B0027A7EB080BBBF1000FDA
:100FB80095DDED1BAAE754F8043B013D4FF001080D
:100FC80003AE4FF0FF3B8DF80C309EE72F46EBE762
:100FD800019351462020C847019B013FF8D56A1E5E
:100FE800002DACBF551B15465F1E01E05146C84792
:100FF80017F8010F0028F9D1BBF1010B09D5B8F199
:1010080001080AD5013D3FF543AE51462020C847A7
:10101800F8E751463020C847EEE7514616F8010B6D
:10102800C847ECE7012294E60F4692E60D4690E6A3
:101038004C238EE6002007B0BDE8F08F39E40A089B
:1010480047F20A08DFE00A0875230B08EBE00A08F4
:10105800E1E00A08E7E00A08E4E00A08074A08B5F8
:10106800136843F40073136000F0E8FE00F0A0FE7C
:10107800034B044A00201A6008BD00BF003C024030
:10108800980801200024F400034A0020536823F044
:1010980002035360704700BF002004E02DE9F047C9
:1010A800044607464FF00109DFF8508014B9384666
:1010B800BDE8F08794FAA4F5B5FA85F509FA05F3C1
:1010C8002E0108EB05156FEA030A24EA03042B7BBB
:1010D800002BEBD058F806301B694BB94644042264
:1010E800284607EA0A077368196800F029FADDE755
:1010F800284698470028D9D1F0E700BFE8610308DF
:1011080030B5002289B00F490F4834F067FB002240
:10111800002300240D4D0E4928460094CDE90623EE
:101128000E234FF44072CDE90334CDE90144094B55
:101138001FF0DCF90849284633F0ADFF204609B016
:1011480030BD00BF65110008C0100120400C01200F
:10115800D80F022011140008F1E00A0801481FF016
:10116800FDBE00BF4C0B01202DE9F04780461E480C
:101178000F4621F073F9064678B300252846BDE8E6
:10118800F087237B73B12368DB680BB1204698474F
:1011980023681B69CBB9636804222046196800F0EC
:1011A800CFF9013610344C45EBD3B8F1000FE5D038
:1011B800002DE2D02846FFF771FF0546002FF7D033
:1011C800002164201FF0FCFCF2E720469847002825
:1011D800E1D00AFA06F31D43E3E7044C0546DFF8BD
:1011E80010904FF0010ADEE76C360120E861030831
:1011F800E861030810B5044C237813B903481FF0BD
:10120800ADFE0123237010BDAC0E02204C0B012053
:1012180010B50446084821F021F95CB1074BBFF32B
:101228005B8F53E8001F013943E80012002AF8D108
:10123800BFF35B8F10BD00BF643601206836012004
:101248000020064BBFF35B8F014653E8000F43E8CD
:101258000012002AF9D1BFF35B8F70476436012072
:1012680070B5FFF7EDFF084C0546084EB44200D3B1
:1012780070BD63685B792BB123685B6813B129463D
:10128800204698471034F1E7E8610308E86103084D
:1012980010B5044C0449204620F060FF034B1C6045
:1012A80010BD00BF800901205C6203085C36012084
:1012B8000023054A1370054A1360054A1360054B5D
:1012C800054A1A60FFF7E4BFAD0E0220643601201C
:1012D80068360120700701207F2402080146002299
:1012E8000023014820F05BBF80090120014820F05D
:1012F800F4BF00BF80090120024B0146186821F0A5
:101308003EB800BF5C360120014821F074B800BF28
:1013180080090120254B70B51878002844D0FFF7C4
:10132800E5FF054690B1224BBFF35B8F53E8001FE2
:10133800013943E80012002AF8D11E4CBFF35B8F35
:101348001D4EB44226D32846FFF7D6FF1B4B1C4C34
:101358001B68002B12DD34F0FAF90A220023FEF78D
:101368002FFFD4E90032C01A40F2E93361EB0201E1
:10137800984271F1000101D3FFF772FFD4E90032FE
:1013880013F57A7342F10002C4E90032BDE87040F7
:10139800FFF7BABF63685B7923B123682946204603
:1013A8001B6898471034CCE770BD00BFAC0E022014
:1013B80068360120E8610308E86103086436012003
:1013C800B810012070B50D4D297861B90C4C012079
:1013D8000C4EFFF7C9FEB44206D3FFF79BFF002867
:1013E800FBD101232B7070BD63685B791BB1236847
:1013F80020469B6898471034EDE700BFAD0E0220E9
:10140800E8610308E861030800212DE9F047084670
:10141800FFF7AAFE044648B34FF4FA784FF00009E4
:101428001FF0EAFB1A4B186030B11A4B1B68092BE6
:1014380002DD19481FF092FD0025184FDFF858A06B
:1014480044B12046FFF72AFE044618B94FF0FF388A
:101458004FF0FF39FFF75EFF064628B9B5B9424697
:101468004B4650461FF0A0FD3546E9E74FF0FF38E0
:101478004FF0FF39D4E72B689B691BB1002228463F
:10148800114698471035BD42F5D3E8E7044DFAE711
:1014980060360120683601204C0B0120E861030802
:1014A800E861030813B5184820F0D8FF174B1B78DC
:1014B8007BB14FF01003EFF3118483F31288BFF36D
:1014C8006F8FFFF727FF84F31188BFF36F8F02B088
:1014D80010BD0F4B1B68002BF9D050B90022002318
:1014E8000C48CDE9002342F21072002320F07EF967
:1014F800EDE70928EBD1074834F07CF9064802B03B
:10150800BDE810401FF02ABD68360120AD0E02204C
:1015180060360120C01001204C0B0120064B10B58D
:1015280004461B6898472146A060044820F0B5FE91
:10153800BDE81040FFF7B6BF700701208009012001
:10154800084BC31A1B1110B4013344682371436854
:101558009A7101224368196043685A7110BCFFF7F9
:1015680049BE00BFE86103082DE9F04F8FB0C1F311
:101578004A280D46914604AF0C0DB8607B60B8F15F
:10158800000F63D0002607F114034FF0040B4FF04F
:101598000A0AC7F80C8032467E624846C7E90766E1
:1015A800019307F11C03CDF808B0CDF800A0F96845
:1015B800FFF7F4F8B0F5006F03461CD36C468AB009
:1015C800D9F8041004AB26481A46C3E9050140F2CD
:1015D800FF71D9614FF400711984224B42F8103F12
:1015E8004FF4125133462048FFF7BEFFA5462C376B
:1015F800BD46BDE8F08FC0F30A0804F117003B6050
:10160800184468F3532520F007008008FFF766FEAA
:10161800044690B13B6800F11001144A4846F9614C
:10162800C7E9083607F11403CDF808B0CDE900A3DF
:1016380007F11C03F968FFF7B1F868F353257B68D5
:10164800B96820462A4620F037FFD0E704F1170092
:1016580020F007008008FFF741FE0446EDE700BFD1
:1016680006E10A08040000019061030895240208B5
:101678002DE9F047804600AF0C46002936D0E946F0
:101688008AB0A3686D46D1E900121C484FF0050ADC
:101698002E46C5E90501C5E9072346F810AF002322
:1016A80032464FF421511648FFF75EFFCD46636975
:1016B800AD46D4E903121348C5F810A0C5E90501E1
:1016C800C5E90723002332464FF421510C48FFF7A0
:1016D8004BFFCD46E3690C4A0121094820F045FF3C
:1016E800A3690A4A0121064820F03FFF21464046E7
:1016F8001EF012FDBD46BDE8F08700BF45E10A08AF
:10170800D861030874E10A08A3E10A08B2E10A08EB
:1017180008B5034B1B689847BDE8084000F006B8B9
:101728007407012030BFFFF7FDBF00BF044B996865
:101738005869884203D003494FF080520A607047C5
:10174800440E022004ED00E070B52A4C06460D4612
:1017580029482A4920F023FFA36ADB0647D52648F3
:10176800274920F01CFF1120A36A1C0704D5224832
:10177800244920F014FF12201E4CA36A990712D5A1
:1017880021491D4820F00BFF636BA26A120609D598
:101798001E4A0121184820F0E8FE1EB1A36A23F072
:1017A8008003A3621320134CA36ADE0704D51248F2
:1017B800174920F0F4FE1420A36A9C0604D50E48AD
:1017C800144920F0ECFE15200A4B9A6AD10600D481
:1017D8009A6A9A6A920603D55A6A22F400525A62A1
:1017E8009A6A42F0FF029A6200232B7070BD1020A3
:1017F800BAE700BF00ED00E0D8610308E0E10A089D
:10180800F6E10A0829E20A083CE20A0854E20A0852
:101818006AE20A0889E20A0810B5204C20492148E2
:1018280020F0BDFEA36A990136D51E481E4920F056
:10183800B6FE1E20A36ADA0104D51A481B4920F017
:10184800AEFE1F20154CA36A1B0304D51548184982
:1018580020F0A5FE2120A36A590304D51148154993
:1018680020F09DFE22200D4CA36A9A0304D50D4852
:10187800114920F094FE2320A36ADB0304D509480C
:101888000E4920F08CFE2420044A936A6FEA034331
:101898006FEA1343936210BD1D20CBE700ED00E013
:1018A800B8E20A08D8610308D0E20A08E3E20A08A5
:1018B800FDE20A081BE30A0840E30A085AE30A089B
:1018C80070B5294C06460D462848294920F067FE80
:1018D800A36AD9043CD52548264920F060FE172084
:1018E800A36A1A0504D52148234920F058FE182078
:1018F8001D4CA36A9B0512D51C48204920F04FFEB9
:10190800A36BA26A100409D51D4A0121174820F0CB
:101918002CFE1EB1A36A23F40043A3621920124CC3
:10192800A36A590504D51148164920F038FE1A2033
:10193800A36ADA050ED50D48134920F030FE1B20A6
:10194800094A936A43F47F43936200232B7070BD66
:101958001620C5E7A36A9B04F2D504480B4920F07A
:101968001EFE1C20ECE700BF00ED00E0D861030874
:1019780085E30A089BE30A0829E20A08ACE30A0897
:10198800C5E30A08DAE30A08F5E30A0889E20A085F
:101998002DE9F041624B8AB005460026D3F8048051
:1019A80000AFC8F3080486F31188BFF36F8F02F005
:1019B8007F43B3F17F4F07D102F00C03082B12D1FC
:1019C8005849594820F0EBFD002635460023FB71A5
:1019D800E31E092B00F28380DFE803F00A797C76A6
:1019E80081818181817F10074CBF0D460126EDE77B
:1019F8004E494D4820F0D3FD494C0023FB71E36A62
:101A08009A0705D54A49484820F0C9FD002432E024
:101A1800E36A002B01DA4749F5E7E36A5B00F5D58D
:101A28004549414820F0BBFD6369AA6943F48073C6
:101A38006361BFF34F8FBFF36F8F636932F8022C76
:101A480023F480736361BFF34F8FBFF36F8F4DF63D
:101A580002739A4208D0A36ADBB243B3F91D01208E
:101A6800FFF772FE044606E02B68344A01212E482F
:101A780020F07BFD2C68FB79ABB92022294607F1C1
:101A8800080020F07AFE7B6A002E44D0C3F30802D7
:101A980022B96FEA53236FEA43237B6207F10801F7
:101AA8002046FFF7E5FD2837BD46BDE8F081A36A6B
:101AB80013F47F4F04D0F91D0120FFF701FFD1E790
:101AC800A36AB3F5803FA1D3FFF7A6FECAE7F91DC5
:101AD8000020C5E7F91D0020EFE7194993E718F43E
:101AE800F87F184AE8468AB0174B18BF13466A466B
:101AF8001649103CC2E905134FF40073D4611384EE
:101B0800134B42F8103F00234FF411510648FFF7DA
:101B18002BFDC5467AE723F4FF7323F00103BCE7E6
:101B280000ED00E03BE40A08D861030866E40A080F
:101B38007DE40A089EE40A08ACE40A08CBE40A0833
:101B4800E7E40A0822E40A080DE40A080BE50A0893
:101B580004000001024A536943F0100353617047BF
:101B680000ED00E0EFF30880EFF3098101B572465C
:101B7800FFF70EFF01BD00BF102080F31188084851
:101B88004FF40061401880F30988EFF314800221B4
:101B9800084380F31488BFF36F8F00F089F80000C2
:101BA800B8210220084B9B6883420BD1EFF30583D1
:101BB80043B1064B5A6842F080525A605A6A22F47E
:101BC80000425A6233F089BB440E022000ED00E067
:101BD800094A6FF00A01936819670849D8664B6883
:101BE80043F080534B60002383F31188BFF36F8F5A
:101BF8009368186F704700BF440E022000ED00E0A4
:101C08000F498A684FF030001044EFF3098C80E8E0
:101C1800F01F102080F31288BFF36F8F094F4FF029
:101C280000664A698A603E60D06E0023D36680F3FE
:101C3800118802F1300090E8F01F8CF30988704792
:101C4800440E022004ED00E01EF0040F0CBFEFF379
:101C58000880EFF30980816911F8021C0229FFD07E
:101C680001B520F098FC01BD40B2002807DB012334
:101C7800410900F01F00024A834042F821307047B2
:101C880000E100E040B2013100284FEA0111C9B279
:101C980006DB00F1604000F5614080F800137047F2
:101CA80000F00F00014B1954704700BF14ED00E01D
:101CB8000F4A08B522F07F020E4B9A60BFF34F8F90
:101CC800BFF36F8FD3F8882022F47002C3F88820FE
:101CD800EFF3148323F0040383F31488BFF36F8FA7
:101CE8001EF0CCFA1FF084FB00F042F81EF01EFB39
:101CF8000000000800ED00E042F8203C203A009B7C
:101D080007495360019B21F001019360029B916197
:101D1800D3604FF08073D36100230265C3667047B8
:101D28003F1F0208074B9860104681F3098800217D
:101D380063B681F31188BFF36F8F0022002320F070
:101D4800FAF800BF440E0220014910220A607047C9
:101D580010ED00E072B6404080F31188BFF36F8F3A
:101D6800BFF34F8F30BF62B6BFF36F8F704700BFAE
:101D7800002304481021C2180133622B82F8001393
:101D8800F9D1704700E100E001B5EFF30580A0F15B
:101D980010004FEAC0000449014409C99847BDE84A
:101DA8000140024908470000F05D030835170008A4
:101DB800154A70B5536913F4803323D1C2F88430BF
:101DC800BFF34F8FD2F8803043F6E074C3F3C900F5
:101DD800C3F34E335B0103EA0406014646EA817504
:101DE8000139C2F86052F9D2203B13F1200FF2D129
:101DF800BFF34F8F536943F480335361BFF34F8F61
:101E0800BFF36F8F70BD00BF00ED00E0002910DD4B
:101E180000F01F030B44BFF34F8F07490344C1F879
:101E2800680220301A1A002AF9DCBFF34F8FBFF37B
:101E38006F8F0020704700BF00ED00E00B4B5A6920
:101E480012F4003211D1BFF34F8FBFF36F8FC3F875
:101E58005022BFF34F8FBFF36F8F5A6942F400329D
:101E68005A61BFF34F8FBFF36F8F704700ED00E0EB
:101E78000CB410B586B009B90DF10B00002409ABFC
:101E8800089A00940393CDE9040104A90448FEF7D5
:101E9800F7FE049B1C7006B0BDE8104002B0704706
:101EA800AB27020810B586B009B90DF10F00002460
:101EB800CDE90401009404A90348FEF7E1FE049B60
:101EC8001C7006B010BD00BFAB27020838B54FF034
:101ED8001003EFF3118483F31288BFF36F8F06F0BA
:101EE800AFFD0C49D1E90032C3180B4842F1000597
:101EF80058430A4A02FB0500094DA3FB02325B194D
:101F080040EB0200C1E9003084F31188BFF36F8F02
:101F180038BD00BF00000120E62EBB27FDB0B0870A
:101F28002DF304B5F0B5114D85B0114E114F4FF09A
:101F3800FF334FF0FF3201A928461EF0CBFE0346BF
:101F480088B101213A460C4820F00FFBEFE72368DF
:101F580013B1019A934202D1636801A898470834E3
:101F6800B442F4D3E3E7054CFAE700BFD40A0120F2
:101F7800F06103083FE50A0888610308E86103087F
:101F88001FB501909DF818008DF809108DF808000C
:101F9800ADF80A200393DDE9082301A902481EF0E1
:101FA80043FE05B05DF804FBD40A012070B5416911
:101FB8000446867A0A4D59B1437ADB0706D42C23A6
:101FC80003FB06535B6A1B689B68984700236361A1
:101FD8002C20214606FB0050BDE8704033F085BA3E
:101FE8007C0B0120827A2C21054B01FB02339A6A73
:101FF8001B7F801A1B3323F00303B0FBF3F07047F9
:102008007C0B012038B52C24827A064B04FB023362
:102018005B6AD3E901240C601568FFF7E3FF04FB52
:10202800005038BD7C0B01202DE9F04385B00546F2
:1020380090461C466846039133F08BFBDDE9006748
:102048004FF01003EFF3118983F31288BFF36F8FFA
:102058006B8B002B41D02A8B9A4225D90022002372
:1020680028461EF047FF0446F0B189F31188BFF3F4
:102078006F8F039B002B41D032463B46684633F0B6
:102088008CFBA27A2C21234B204601FB023303A9A7
:102098005B6A1B681D68DDE90023A847606170BBA7
:1020A8002046FFF783FF24E0698B4B1E6B8389F37F
:1020B8001188BFF36F8F2B7F2A8B1B33AC6A521AA0
:1020C80023F0030302FB0344124B134AEB1A9B1041
:1020D8005343A3722B7FE372CBE789F31188BFF3D5
:1020E8006F8F2346424628461EF004FF0446002808
:1020F800BFD10024204605B0BDE8F083636100230A
:102108000122636022812382039A63696282E36009
:10211800F0E700BF7C0B0120A38B2EBA70B50C4CE6
:102128002C2500B970BD037A4668013BDBB2037207
:10213800002BF7D1C3604360837A05FB03431B6A16
:1021480013B198473046ECE7FFF730FFFAE700BFD6
:102158007C0B0120F7B507460E461446FEF710FD26
:10216800051E17DB3CB97B1E012B04D8022E16D0A6
:10217800012E08BF0624F1B201ABA2B2B8B201F039
:102188003BFF061E0DDA76422846FEF753FD20F087
:10219800A8FB06604FF0FF35284603B0F0BD1124B8
:1021A800E9E7019800234360C365603033F066F9BE
:1021B8000198783033F09DFA062C02D1019822F06C
:1021C8000DF8034A28460199FEF71CFDE4E700BF15
:1021D8007C62030837B5069D0446E3B900930022E4
:1021E80000230E4901F0F2FF04F1600033F046F9D4
:1021F80004F1780033F07DFA214605F1600033F0F0
:1022080069F9204621F0EAFF05F1780003B0BDE83E
:1022180030401FF0A9B803B030BD00BF092902083B
:1022280037B5054622F015F8041E06DA644220F098
:1022380058FB04604FF0FF3006E0B5F88A30C3F36E
:102248008113022B02D0002003B030BD6B6800223E
:10225800044928460093002301F0B8FF041EF2DA6F
:10226800E4E700BF092902082DE9FF47B0F88A30E2
:10227800924604468946C3F34102022A58D0012AED
:10228800C56D11D16B0706D54468002C50DD20F0D0
:1022980028FB046003E020F024FB782303604FF060
:1022A800FF3004B0BDE8F08715F00205C3F38113D1
:1022B80042681DBF002600271E4D47F2305608BF52
:1022C8000027012B1DD10092002300221A4901F09A
:1022D8007DFFB0F1000804DA20F003FBC8F1000329
:1022E800DCE7636852464946204602932B46CDE90F
:1022F800006722F0B4F9041E1ADA644220F0F1FAF9
:10230800C7E72B4602925246CDE9006722F0A7F9AB
:10231800051E04DA6D4220F0E4FA0560BFE7636841
:102328000022054920460093002301F04FFFE2E711
:102338000020B6E7EF2802080929020837B5054644
:1023480022F019F8041E07DA644220F0CAFA046081
:102358004FF0FF3003B030BD002200230449284667
:10236800009522F0FBF9041EEEDB0020F2E700BF27
:10237800DD2100082DE9F04F5B068FB016464FF0BF
:10238800FF384FF0FF394FF00A0204460D46189FF8
:102398000B92CDE90C8903D4C36D13F002034CD022
:1023A80000220023CDE90C2308A833F0D2F908A8AD
:1023B800DDE90C23DDE9088933F0CBF92C49204607
:1023C800DDE90823CDE90623636800220093002392
:1023D80001F0FCFEB0F1000A36DB4FF0000A0DF107
:1023E8002C0B6168DDE90C23002F37D004912046BF
:1023F8002946CDF804A0CDE90223199B3246009363
:102408003B4622F031FA002825DA0146CDF808B01B
:102418002046DDE90C23CDE9002342464B4620F057
:10242800D7FA002817DB08A8DDE9062333F0B5F949
:10243800DDE90823CDE90C23D3E70CAA052101F037
:10244800AFFF0C4A0023AFE720F04BFACAF10003B4
:1024580003604FF0FF300FB0BDE8F08FCDE90023E7
:1024680002913B4632462946204622F0A8F9CAE79F
:1024780009290208A08601002DE9F0474FF0FF3333
:102488008CB015464FF0FF3204460E46CDE90A23BC
:102498000A2309936B0603D4C36D13F0020339D0E2
:1024A80000220023CDE90A2306A8002733F051F9BA
:1024B80006A80DF1240ADDE90A23DDE9068933F0CF
:1024C80048F9DDE90623CDE90423DDE90A2331468D
:1024D80020460297CDE9002300232A4622F0A3F9DB
:1024E80000281EDA0146CDF808A02046DDE90A23B7
:1024F800CDE9002342464B4620F06AFA002810DB5B
:1025080006A8DDE9042333F048F9DDE90623CDE91F
:102518000A23DAE70AAA052101F042FF024A00234A
:10252800C2E70CB0BDE8F087A08601002DE9F341B1
:10253800074688461646FEF723FB051E15DBFB6D8E
:10254800980718D44FF0FF324FF0FF3369463846EA
:10255800CDE9002320F0B6FC041E0CDA64422846BC
:10256800FEF768FB20F0BDF904604FF0FF35284600
:1025780002B0BDE8F0810022002307F160001EF0E0
:10258800B9FC044638B92846FEF754FB20F0A9F9EF
:102598000B230360E9E7603032F0C4FFA0B190F884
:1025A8003730990710D5E36D284643F00103E365FA
:1025B800FEF740FB204620F089FA204601F0DEFDB8
:1025C80020F08FF97123E4E7B4F88A305A050DD565
:1025D80020F087F9712303602846FEF72BFB20467D
:1025E80020F074FA204601F0C9FDBEE723F4007319
:1025F800A4F88A30B8F1000F0ED06EB1326804F139
:1026080028014046082A28BF082220F0B6F8238D62
:10261800012B07D108233360084A21462846FEF7D4
:10262800F1FAA4E7022B01D11823F4E72846FEF7B4
:1026380001FB20F056F986230360D0E77C6203088B
:102648002DE9F04F8FB007460D4603924FF0FF3249
:1026580000934FF0FF33CDE90423189B5C06DDE9B6
:10266800196A03D4C36D13F002032AD00022002391
:10267800CDE90423189B07F1600413F00203DDE998
:102688000489019339D01022002109A820F080F88C
:1026980004230D948DF83130012142464B4609A898
:1026A8001FF0DEF800F10B0280460B2A03D8864B98
:1026B8001341D90718D520F014F9C8F100030360B5
:1026C8000DE004AA042101F06BFE04A9384620F0AD
:1026D800F9FB041ECEDA644220F003F904604FF0DF
:1026E800FF300FB0BDE8F08F204632F017FF0446E8
:1026F80048B920F0F6F80B23E1E742464B4620465E
:102708001EF0F8FBF3E7D0E90398002E4CD0BAF19D
:10271800000F49D0B7F88830DAF80070029322F039
:10272800EBFA94F83730C3F30213338094F8373058
:10273800C3F30213012B58D100221423072FCDE92C
:1027480009233BD90DF1240B2046594622F05EFDA2
:10275800074610B96FF0680532E00A99204622F062
:1027680026FB0028F6D194F83A10204622F01FFBE9
:102778000028EFD1FA689DF808307260112B2CD12F
:1027880007AB5946099308230A93204622F03EFDD9
:102798000028DFD003887380C4E903983388012BAD
:1027A80026D10823CAF80030002D6FD0EB680BB192
:1027B800AB6833BB20F095F80C2380E76FF0150564
:1027C8006D42C4E9039820F08CF80560019B002B4A
:1027D80085D1204622F0F9F981E7062B05D114238B
:1027E80007A9CDF81CB00893CFE76FF08505E7E798
:1027F800022B01D11823D5E720F073F88623036054
:10280800E4E720464FF0000A22F0F5FB009F064659
:10281800874228BF0746BB46BBF1000F10D1009B7B
:10282800C5F80CA09E4203D9AB6943F02003AB6105
:102838002B691BB16B69002B37D000236B6134E027
:10284800AA684FEACA0352F83A1002EBCA0019B94B
:1028580020F047F8162332E74268204603935A458A
:1028680028BF5A46029222F06CFBDDE9022318B118
:1028780020F037F86923C2E75A45E9D8A968ABEBD5
:10288800020B0AF1010A19444A60C5E7204622F002
:10289800B2FB009F06460399874228BF0746204699
:1028A8003A4622F04EFB0028E2D1019B4BB9204664
:1028B80022F08BF9189B13F0200F0CBF38463046D6
:1028C8000FE7C4E90398F5E77EF7FFFF0048704774
:1028D80071E50A082DE9F047036880460E461B6833
:1028E800D3F80890B9F1000F00F0B08091F83730B4
:1028F800C3F30215012D7BD18B688F69DC6801F069
:102908002BF9036822699A4202D13446082723E04A
:1029180004F11001384600F06FFD0028F5D1B368C6
:10292800D9681031084620F09CFD02460028ECD1F9
:10293800304600F019F90446002800F08A808642E3
:10294800E4D0304622F041F994F8373065F30613A5
:1029580084F837304FF4C167E36A23B93E4BE3622A
:10296800062384F830304FF47A7200230E21204673
:1029780001F07EFD0546002847D0B7F5C16FD0F8B5
:102988000CA03CD094F83730C3F30213012B36D196
:10299800A368DA681032104620F063FD78B3514618
:1029A800104620F05BFE0622616A0AEB02001FF067
:1029B800E4FE0E2105F10C00AAF80C701FF065FF6B
:1029C8002946204622F028F9204622F095F9D8F821
:1029D8000020D9F81830214610689847054618B3E2
:1029E800A0684368A3600023436022F0EAF80EE081
:1029F80001220C4662F3061381F83730AAE7062253
:102A0800E16A50461FF0B9FECDE76FF00B05B7F548
:102A1800C16F14D1304622F0B8F8A3684046D9688F
:102A2800103100F0E5FA07E0A068034653B94268A0
:102A3800A260436022F0C5F8204622F0C6F8284676
:102A4800BDE8F0871A8A5B681544EFE76FF0010567
:102A5800F5E76FF00B05F2E771E50A0838B503688A
:102A680005460C499C6801236061201D237632F0DD
:102A7800DAFD286820F04BFD430542BF237E43F072
:102A88000403237600F0C8FA637E43F002036376FA
:102A980038BD00BFE534020808B5084B5A683AB19A
:102AA8001B68002123B19A4204D1044820F015FE86
:102AB800104608BD19461B68F4E700BF843601209C
:102AC8002DE9F84320F019FE4FF0FF3306464FF08A
:102AD800FF32214820F019FE204B1C685CB12568A4
:102AE800C6F5FA69DFF874801D4F34B91A48BDE895
:102AF800F84320F02EBE2546F2E7626809EB020390
:102B0800002B21DC0121204620F025FE2246002151
:102B1800404620F0E2FD002323607B6833B9C7E913
:102B2800004435B12B682C461D46DEE71C607C60EE
:102B3800F7E72B46F7E702F5FA620A23A2FB03231D
:102B480008481EF00BFCD1E7921B12F5FA6FF2D180
:102B580000221346F4E700BF703601208C360120AE
:102B680094360120701101202DE9F04F8A4685B076
:102B78009046054620B90026304605B0BDE8F08FDE
:102B88008368002BF7D05AB9806921F000F938B969
:102B9800AB695B6823B103F1300A1B6B002BEAD0E9
:102BA8006E4E4FF0FF324FF0FF336D4820F0ADFD11
:102BB800002337685246039303ABA969384620F0CF
:102BC800BAFD044630BBDFF89C910346D9F80000F3
:102BD80020F0B1FD064600283BD163480468A4B341
:102BE8002246314620F079FDD5F818B0B8F1000F2B
:102BF8003DD14FF47A7200231C215846CDE90023B9
:102C08004346424601F0E6FC064688BB544820F09D
:102C1800A0FDB1E7B84207D002460399304620F03C
:102C28005CFD214620F052FD4D48103420F091FD06
:102C380054F8083C2E461B681B69EC626B6206233D
:102C480085F8283085F8303096E7FFF725FF0446E9
:102C5800CAE7284621F099FF014606F1180032F02C
:102C68004EFC0028C0D03E4820F073FD83E72E4676
:102C7800B0681C210C301FF008FEB368DF68002C18
:102C880058D0284621F081FF014604F1180032F09F
:102C980021FCB369A360DAF80030E360A3681B681D
:102CA8001B69736200232360D9F80430002B3DD1DF
:102CB800C9E9004420F021FD60602C4832F033FD62
:102CC800084305D144F62062002329481EF046FB3C
:102CD8004FF0060B4FF0040986F828B0FFF7F6FD11
:102CE800002101230822F06207F1120086F830B0B3
:102CF8007B70BA705A46FB713970F97087F804B066
:102D080087F80590B9711FF043FDDAF80030BB6110
:102D18005A46716A07F108001FF02FFD7CB9AB68AD
:102D2800D9680C310B68C7F80E306FE71C60C9F81A
:102D38000440BFE7DBF800301B697362C8E7A3688B
:102D48004146586820F0E3FC01460028EAD14A468B
:102D580007F10E001FF01CFD58E700BF8436012064
:102D6800703601208C360120943601208011012014
:102D7800701101202DE9F74FDFF890A1044616469F
:102D880063484FF0FF3298464FF0FF330F469DF8E7
:102D9800309020F0BAFC0023DAF800B03A46214619
:102DA8000193584601AB20F0C6FC054678BBBBF141
:102DB800000F02D1574832F088FCB8F1000F0CD050
:102DC800554801AB3A462146006820F0B4FC20B1D2
:102DD8000622314610301FF0D0FCB9F1000F10D098
:102DE80000234D483A462146019301AB006820F084
:102DF800A2FC0346002860D00622314610301FF09E
:102E0800BCFC434803B0BDE8F04F20F0A2BC02462A
:102E18000199504620F061FCDAF8003013B93D48BA
:102E280032F053FC3146062205F1100005F118086E
:102E38001FF0A3FC2946384820F048FC4FF006094B
:102E4800AB69002BDDD04FF0FF334FF0FF32404627
:102E58001EF050F8836880F830900646DB68C3623D
:102E6800002C48D02368BFF35B8FDB68BFF35B8F10
:102E78009A0407D44FF0FF324FF0FF3304F12800D3
:102E880020F043FC2368002B3CD05B683146204689
:102E98005B6898472368BFF35B8F0746DB68BFF31F
:102EA8005B8F9B0403D404F1280020F052FC002F10
:102EB800C6DA304621F089FEC0E718480568A5B192
:102EC8002A46194620F009FC20F017FCC5E9010440
:102ED8003B68EB600622314605F110001FF04DFCFF
:102EE80029460D4820F0F2FB8BE7FFF7D5FD054694
:102EF8000028E9D185E74FF0FF324FF0FF33282053
:102F080020F003FC00235B68FFDE00BF8C36012045
:102F1800703601207011012084360120943601207A
:102F28002DE9F843DFF8B48005464FF0FF324FF043
:102F3800FF332B4820F0E9FBD8F8004024B126687D
:102F48000027DFF8A09094B9274F3C682CB1266879
:102F58004FF00008DFF88C9024BB3B6813B9234876
:102F680032F0B3FB1E48BDE8F84320F0F2BB23461D
:102F780015B1A268AA420DD10021204620F0EBFB32
:102F880039464046224620F0A8FB2146484620F014
:102F98009DFB3B4626B1326834461F461646D2E7AB
:102FA8003246F9E7234615B1A26895420DD10121B1
:102FB800204620F0D0FB41463846224620F08DFBC3
:102FC8002146484620F082FB434626B13268344603
:102FD80098461646C0E73246F9E700BF8436012016
:102FE80070360120943601208C36012070110120A2
:102FF8000A460146074808B50023006820F09BFBF5
:1030080020B1012120F0A7FB002008BD6FF00100CE
:10301800FBE700BF8C36012038B5124D2B7803BB77
:10302800114A124CC2E90033114AC4E90033C2E91B
:103038000033104832F022FA0F49204620F046FBB0
:1030480001F1480032F01AFA20460C4920F03EFB04
:103058000B490C4832F02BFB0B4832F096F9012350
:103068002B7038BDAE0E02208C360120943601201C
:1030780084360120B43601209C360120CC3601204C
:10308800C92A00087011012070360120036804481D
:103098001BBA1B0C1B041B1A58425841704700BF2F
:1030A8000000FEA90A4A034610B520F079FD8242C5
:1030B8000C460BD11B6818688368DB680BB198470E
:1030C80003461C420CBF0120002010BD0120FCE774
:1030D8002C0C01204FF0FF334FF0FF3270B505463E
:1030E800184820F088FD184B196879B10A684FF024
:1030F800FF334FF47A7659B95A1C1BD1134832F072
:10310800E4FA1048BDE8704020F0A4BD0A46EEE796
:10311800CC69098C641B06FB0141002909DD8B423F
:1031280028BF0B461AB1106811460246E3E710465D
:10313800FAE700230A220548A3FB02231EF00EF932
:10314800DFE700BF400A012050370120A01101200D
:103158002DE9F04105468846164620F04EFD6C687C
:10316800002C38D0626900271C4B13401C4A93423C
:103178001AD12388012B17D1221D1046FFF786FF8D
:1031880090B908F1FF3003343B4610F8011F14F8DA
:1031980001CF61450FD10833DBB2202BF5D131784F
:1031A800994201D81746337005F1140020F052FDFA
:1031B8003846BDE8F08181EA0C010806EFD403F136
:1031C8000800C0B201334900DBB2C9B29842E6D068
:1031D8000C06E4D4F6E72746E6E700BF00FF020046
:1031E800000102002DE9F047254E20F0E8FC4FF0E1
:1031F800FF3280464FF0FF33224820F0FCFC346851
:103208002CB1002527684FF47A7AA9463CB9404684
:10321800FFF760FF1B48BDE8F04720F01BBDE369DE
:103228002246218CA3EB08030AFB0133002B19DC8F
:10323800A388012B06D1102304F10802A1691248C2
:1032480000F098FD23689DB972683360944200D1FC
:10325800736094F822302A46C4F8009069F300039A
:1032680084F8223057B13B683C4615461F46CDE7E7
:103278002B6073689C4208BF7560EAE73B46F3E73A
:1032880050370120400A0120060004E038B50368E1
:10329800002104469D7E20F0B7FC88B923680222ED
:1032A8009A762068837E934237D1062D35D108213E
:1032B8000C3020F08CFC0023214618481A4625E0E3
:1032C8002368186831F025FE10B923680322E7E760
:1032D8000921204620F098FC0028DFD00A2120464A
:1032E80020F092FCC0F106032268DBB293762068D6
:1032F800827E9A4211D1062AD7D1062D0DD00821F7
:1033080020F099FC0023214605481A4600F032FDBA
:103318002046BDE8384020F082BC38BD010001D00D
:10332800020001D0002809DD431E3C22044802FBAC
:103338000300044B984228BF0020704700207047C4
:10334800D40B0120100C01200346064A064890427F
:1033580001D300207047016809688B42FAD03C30DD
:10336800F5E700BF100C0120D40B0120054B064ADD
:10337800934205D0054A1068002808BF18467047D0
:1033880000207047D40B0120100C01205837012071
:1033980038B504460D4620F030FC0621204620F0C2
:1033A80033FC10B3636843B105B12B60002504F109
:1033B800140020F04FFC284638BD4FF0FF324FF084
:1033C800FF330B4820F017FC0A4BDA6B3AB96360FD
:1033D800DC6305B12B60064820F03CFCE6E70448B6
:1033E8006FF0020520F036FCE1E76FF08505DEE7B7
:1033F800400A01201037012070B50D4668B1BDE8BC
:10340800704020F0E3BC2946204620F0DFFC18B9C4
:103418003C34B442F7D3002070BD014C014EF8E7AC
:10342800D40B0120100C012070B50546084C094E3C
:10343800B44203D3BDE87040FFF798BF2946204641
:1034480020F0A5FC08B93C34F2E7204670BD00BF67
:10345800D40B0120100C012000232DE9F34105466F
:1034680008460F468DF80730FFF710FEE8B9BDB1E2
:103478000DF107022846FFF76BFE04460BE03046C5
:103488000DF1070239463C36FFF762FE002818BFE7
:1034980004464645F3D3D4B1204602B0BDE8F081D6
:1034A8002C46154EDFF85480F3E725B10121284654
:1034B80020F0A9FCE1E70121FFF758FF20F0A3FC69
:1034C80004460028E8D10C4E0C4FBE420BD3012114
:1034D800284620F09BFC04460028DDD102B0BDE858
:1034E800F04100F035BB0121304620F08CFC044649
:1034F8000028D1D13C36E8E7D40B0120100C01207C
:10350800F8B506460D46114C114FBC4201D30024B4
:1035180019E0204620F071FB636804F114001BB920
:103528003C3420F097FBF0E79A7D9207F8D51A888B
:10353800012AF5D1326859689142F1D105B12C6060
:103548001C4620F087FB2046F8BD00BFD40B0120A5
:10355800100C01202DE9F34106460F4690461D4602
:1035680020F04BFB01A93046FFF712FF002833DBA0
:103578007468A37D9A0703D53A6863689A420AD0AB
:10358800B8F1020F019C02D1237D042B02D0A37D48
:103598009B0721D43CB906F1140020F05BFB2046C0
:1035A80002B0BDE8F081A37D01220C4843F002037C
:1035B8002280A3753B68A17D6360B5FA85F36275C7
:1035C8005B0984F8148063F300010423A175E218F1
:1035D800314600F0CFFBDEE70024DCE7010004E021
:1035E800F8B506460D46154C154FBC4207D245B1F5
:1035F8002B6833B1A34204D03C34BC42F8D3002436
:1036080019E0204620F0F9FA636804F114001BB9A8
:103618003C3420F01FFBE8E793F82C20D207F7D5BD
:103628001EB1D96932689142F2D105B12C6003F11B
:10363800180420F00FFB2046F8BD00BFD40B012072
:10364800100C0120F8B54FF0FF33054617460E4819
:103658004FF0FF320E4620F0CEFA0C4B1B680BB130
:103668001C6823B90848BDE8F84020F0F3BA5B6845
:103678003A463146284698471CB1226823461446E4
:10368800EFE72246FAE700BF400A01200837012089
:10369800F0B5002385B004460D46CDE90033002976
:1036A8004DD0294B1B68ABB1C96A95F8302089B158
:1036B800062A0FD80DF10A068DF8092030461FF0AA
:1036C8005CF89DF8093000968DF8043095F8313093
:1036D8008DF80530092120466F6920F095FA80B3EE
:1036E8000D21204620F090FA38B94FF0FF324FF004
:1036F800FF3304F1280020F07EFA2046294620F006
:103708004FFA4368204698470D210646204620F088
:103718007BFA18B904F1280020F09CFA002E02DA8E
:10372800284621F052FA1FB13146384620F03DFABA
:10373800009B23B1324669462046FFF783FF05B058
:10374800F0BD6FF07206EBE708370120074B98428F
:1037580008D3074A904205D2C01A064B8010584336
:10376800013070474FF0FF30704700BFD40B012085
:10377800100C0120EFEEEEEEF8B505460E46054CAE
:10378800054FBC4200D3F8BD204631463C34A8471B
:10379800F7E700BFD40B0120100C012038B505460F
:1037A80020F02BFA0021284620F02EFA38BB2846B4
:1037B80020F0F6F92B68044670B1846864B1186883
:1037C80031F0A7FBF0B12846012120F0E9F9836820
:1037D80028469847041E0CDB0021286820F02BFAA5
:1037E80000230A4829461A4600F0C4FA2846FFF77B
:1037F8004DFD05F1140020F02DFA204638BD6FF07C
:103808007704F6E76FF00504F3E700BF040001D082
:10381800074A08B5034620F0C3F9824206D11B685F
:103828009B68987E431E5842584108BD0020FCE71B
:103838002C0C012070B50546B8B10D4C0D4EB442A4
:1038480002D36FF0010070BD28461EF049FF2946DB
:10385800024604F108001EF056FF20B92046BDE8D4
:103868007040FFF773BF3C34E9E76FF01500EAE7F3
:10387800D40B0120100C01202DE9F043374C002512
:10388800DFF8DC8085B0DFF8DC904FF0FF32364F90
:103898004FF0FF33354820F0AEF921F0EAFC4445FB
:1038A80012D35DB1324B4FF4A072324932481A87B5
:1038B80031F0FDFE314B0022C3E900222B4805B050
:1038C800BDE8F04320F0C6B90922002104F1080040
:1038D8001EF05EFF002320468DF80C30CDE9013341
:1038E800FFF796FF70B33B685A1C3A60244A0821D8
:1038F80001A81EF013FB9DF8043043B9214A01A822
:103908001368591C116008211F4A1EF007FB01A902
:10391800204620F01AFB206803689E687EB1336851
:103928006BB1062120F087F904F1140031F02DFD68
:1039380004F1280031F029FD336820469847013505
:103948003C34ACE7204620F02BF98145D3D10F4A0F
:103958001368591C11600E4AC9E700BFD40B012037
:10396800100C01202C0C012004370120400A0120F2
:1039780010370120ED310008A01101205037012037
:1039880077E50A08FC36012084E50A08003701209B
:103998007EE50A0838B5074C074DAC4200D338BD60
:1039A8000321204620F030F910B92046FFF7F6FE33
:1039B8003C34F2E7D40B0120100C012001282DE93A
:1039C800F7430C46164628D108461EF089FE2346C2
:1039D8002044834214D13046751E03360422002148
:1039E8001EF0D6FE20460A2201A91EF0E0FD019C29
:1039F80005F8010FB54204F10104F3D1002009E0F4
:103A080013F8012BA2F130010929E2D92E2AE0D0BE
:103A18006FF0150003B0BDE8F0830228F8D12E211D
:103A280020461EF043FE237800280CBF08270627EF
:103A38003A2B08BF013420461EF052FE00224349AB
:103A4800824223DB0025A8462378002BE0D03A2BBE
:103A580041D01022002120461EF0A9FD81461022E7
:103A68000021C9F3072920461EF0A1FD49EA0029D3
:103A780026F815903A2120461EF018FED8B1441CAD
:103A88000135AF42E0DC062FB8D13EE0A35CA3F1DC
:103A98003005092D09D9462B09D82D2BB8D92E3B2D
:103AA800DBB221FA03F3DB07B2D50132C8E7613B89
:103AB800052BFAD9ACE77B1EAB42A9DC0135AF4236
:103AC800A6DC062F9AD1A3E706EB450306F8158076
:103AD80083F801800135BD42F6DB3A2120461EF00D
:103AE800F2FDA04228D1062F0ED06378002B85D096
:103AF8007D1E013010F8013D3A2B01D1013D87D3DD
:103B08008442F7D10134BBE701340B360025237812
:103B1800002B3FF47DAF00210A2220461EF047FD0E
:103B28002E2106F8010F20461EF0C0FD48B10135D0
:103B3800441C042DEBD161E7062F08BF00F1FF30CC
:103B4800D6E7032D7FF464AF58E700BF0110F801F2
:103B580000487047C462030800487047C062030801
:103B68002DE9FF47414E424D4FF0FF324FF0FF33F2
:103B780002A930461DF0AEF810B104B0BDE8F087D8
:103B88003C4C4FF0FF323C4F4FF0FF333B481DF0A9
:103B980037F9BC420CD32C6824B10027D4F8008034
:103BA800B94614BB354820F004FB1CF087FFDBE75F
:103BB8000298236880EA030280EA0301C2F30172D3
:103BC800C1F30A410A430ED182B222B19AB212B1AC
:103BD80003409BB23BB1A368039900930023D4F838
:103BE80004C01A46E0470C34D3E70299A36881EA77
:103BF800030281EA0300C2F30172C0F30A400243E0
:103C080020D18AB22AB19AB21AB101EA030292B259
:103C1800C2B11B01D4F804A0039A21D5DAF81830F0
:103C28000BB193420ED1A160CAF8182023688FB94E
:103C38006A682B60944200D16B606068C4F8009099
:103C48001DF08CF9B8F1000F0ED0D8F800304446BA
:103C58009846A6E73B606B689C4208BF6F60ECE73C
:103C680020462746D047EDE74346F0E7A40A01205F
:103C7800643701204061030840610308680A012095
:103C88000023124912481A4610B5124C0B60A04284
:103C98000BD303B10A60104B1B685BB11A68086844
:103CA80000244BB904B1086010BD50F80C3B1A430E
:103CB8000123ECE71A46F2E79B68184322B114681F
:103CC800134622460124ECE71446F9E76C37012035
:103CD80040610308406103086437012010B50446B9
:103CE8004FF0FF324FF0FF3309481DF089F8094BB8
:103CF8001A6822605A681C6002B95C60064AA368A8
:103D0800116803480B431360BDE8104020F051BA16
:103D1800680A0120643701206C37012010B5044679
:103D28004FF0FF324FF0FF3310481DF069F8104B89
:103D380000211A6852B1944215D1226869B95968AC
:103D48001A608C4200D15A6000232360FFF798FF65
:103D58000648BDE8104020F02CBA0A605A68944220
:103D680008BF5960F0E711461268E3E7680A0120C6
:103D780064370120F8B51A4B0E46010C05461A683F
:103D8800030F21EA124123EA127320EA020203F028
:103D98000303C1F30A0192B20B4353EA02041DD193
:103DA800104F4FF0FF334FF0FF320F481DF028F847
:103DB8000822214638461EF0EBFCC7E900560023CE
:103DC8003946642209481CF02FFF074820F0F1F912
:103DD80007490848BDE8F84031F052BCF8BD00BFBB
:103DE8006C3701205C3701207C0A0120A40A0120DD
:103DF80078070120D01101201FB5FFF741FF0A4BBA
:103E08000A4C0293002320468DF80C3031F049FC0F
:103E180002AB4FF440720649204600934FF0FF333F
:103E28001DF00AFA04B010BD8AE50A08D011012075
:103E3800D81402202DE9F84F334C06460F46904619
:103E48001D469DF828909DF82CA004F5587BB4F8E1
:103E58008A30DA0705D490345C45F8D10020BDE8F3
:103E6800F88FB4F88820BA42F5D1628C4245F2D175
:103E78001B0528D42B88012BEDD1636A002BEAD0CF
:103E8800228C012AE7D11A680AB16B6823BBBAF100
:103E9800000F03D094F88630002BDCD1B9F1000F65
:103EA8000ED0B4F88A30C3F38111012903D1C3F3CA
:103EB8004103032B04D0002ACDD16B68002BCAD153
:103EC8006FF01000CBE7002ED4D094F98C0020F0CE
:103ED8007CF98642BFD1CDE79342BCD1BAF1000F3D
:103EE80003D094F88630002BB5D1B9F1000FE7D094
:103EF800B4F88A30C3F38113012BE1D1236C93F812
:103F080030320A2BDCD1A6E7883701202DE9F341AE
:103F180005460E46DFF82C800027FDF7D7FF40EA5C
:103F280008043346002064BAA4B2CDE900772246DB
:103F380095F88810FFF77EFF1130EED0204602B0CA
:103F4800BDE8F0810080FFFF2DE9F347294C0E46BC
:103F5800174698460025A246B4F88A30DB0721D5D3
:103F6800236B98421ED190234FF0FF325D434FF0F0
:103F7800FF3305F10C040AEB05095444204620F0F0
:103F880022F9B069FFF7E2FB89F88C00C6F81490B3
:103F9800D9F83430C3B9204620F019F9022002B00C
:103FA800BDE8F08701359034062DD5D14FF0FF32AA
:103FB8004FF0FF330C2020F006F9B069FFF7C6FB7D
:103FC800002383F88C30FFDE05F1440050441CF0D8
:103FD800C5FF204620F0FBF800240A9B48460094C1
:103FE8003A4601933146D9F834504346A84720460B
:103FF800D5E700BF8837012002282DE9F84F8A4607
:104008001746984605D860B96FF069042046BDE8A0
:10401800F88F033801288CBF6FF069046FF05F04D4
:10402800F4E7022800F09B80022906D0032907D074
:10403800012922D06FF06A04E8E7112A40F0928043
:10404800B8F1000F00F091804FF0FF334FF0FF32CE
:10405800474800241CF0A8FF464B1E46B3F88A10B8
:1040680011F001010BD001349033062CF6D16FF01A
:1040780001043F481CF072FFC8E7062ADEE79022D9
:1040880002FB04F506EB050948461EF081FBFFF725
:104098006DF9062F57D09020FF2300214FF0010C17
:1040A80000FB046282F88C30334BA2F88A10BFF30D
:1040B8005B8F2B4453E800EF43E800CBBBF1000FC4
:1040C800F8D1BFF35B8FB2F88A300AF1FF32022AC7
:1040D8003FD900FB0464194305F128000822A4F81D
:1040E800887005F1200741F0080130443744A4F8EE
:1040F8008A1000211EF04CFB0822002138461EF0D1
:1041080047FB39464846FFF701FF788020B3402334
:10411800012184F88D3084F88E1005F144004FF0A9
:10412800FF32304431F002FA05F10C00304431F02E
:104138002CF9B4F88A3043F00103A4F88A3000243B
:10414800C8F8009095E7484601F02AF80028A2DA56
:104158008DE74FEA8A11BCE76FF06F0489E76FF0CB
:104168005F0453E76FF07A0450E76FF015044DE7EA
:1041780070370120883701209037012070B5044638
:10418800F0B1114B98421BD303F55873984217D2DC
:1041980000F10C0600254FF0FF324FF0FF33304698
:1041A80020F011F82046E563C4E90D5501F036FA10
:1041B800204620F021F8304620F009F8284670BD46
:1041C8006FF01500FBE700BF883701202DE9F047A5
:1041D8001F46B0F88A3088B00546DB078A46904605
:1041E800DDF840907CD500F10C064FF0FF334FF01E
:1041F800FF3230461FF0E7FFB5F88830112B64D145
:10420800B5F88A300024286BC3F3C203CDF81A40EE
:10421800ADF81E40ADF8183010B100F015FC2C6355
:10422800284620F08AF8044650BBB5F88A30C3F314
:10423800C203012B47D16B6A13B11B68079306AB06
:104248006C8C05F1300C64BAB5F88A20B5F8880092
:10425800A4B2C5F834A0C2F3C201019412F480726A
:10426800CDE9049CDFF880C018BF05F12802CDE92C
:10427800025C6C8D64BAA4B2009400F0BBFA0446E8
:10428800002C19DB58EA070316D0443528461CF0E1
:10429800B3FE30461FF09BFF42463B4628461CF0C3
:1042A80083FE0B304FF0FF324FF0FF33304608BF2C
:1042B8006FF073041FF087FF30461FF088FF204619
:1042C80008B0BDE8F0870346BBE7062B05D14A4690
:1042D8005146284621F0BAFDD1E76FF06A04EBE7B2
:1042E8006FF00804EBE700BF513F00082DE9F041EB
:1042F8000F4615461E46044600284BD0274B9842C9
:1043080048D303F55873984244D200F10C084FF093
:10431800FF324FF0FF3340461FF055FF791E0F293B
:104328000FD8DFE801F031313131313131081D2743
:1043380031311931311555B3012E28D82B7884F82D
:104348008430002440461FF042FF2046BDE8F0813B
:104358002B6884F88D30F4E72B6884F88E30F0E70A
:10436800ADB1042E13D12B68003B18BF012384F88C
:104378008530E6E75DB1042E09D12B68003B18BFF4
:10438800012384F88630DCE76FF08504DAE76FF004
:104398001504D7E76FF01504D7E700BF8837012069
:1043A8002DE9F0410F4616461C460546002846D022
:1043B800244B984243D303F5587398423FD200F1F7
:1043C8000C084FF0FF324FF0FF3340461FF0FBFE62
:1043D800791E0F2910D8DFE801F02C2C2C2C2C2C5E
:1043E8002C0820292C2C1D2C2C1695F884301EB353
:1043F80033700CB101232360002440461FF0E7FE10
:104408002046BDE8F08195F88D303360002CF3D05C
:104418000423F0E795F88E30F7E795F885305EB11C
:1044280014B12268042A07D13360E5E795F886308D
:10443800F5E76FF08504E0E76FF01504DDE76FF04E
:104448001504DDE7883701204FF0FF3201210148CC
:1044580031F06CB8703701200146014820F07EBB6E
:104468007C0B01200146014820F078BBA80B0120F5
:1044780010B404460846054964688C4202D110BC51
:10448800FFF7EABF10BCFFF7EDBF00BFC40901206A
:1044980073B5044616461D4630F0F7FD08B10026F0
:1044A80035462B46324601A920461BF0C7FF054674
:1044B800B8B94022014601981EF06AF90A4A0198E3
:1044C800012394420362446005D180F83C3020F017
:1044D80013FC02B070BD054B9C4208BF80F83C50ED
:1044E800F5E70020F5E700BFFC090120C409012019
:1044F80002460B460148FFF7CBBF00BFFC0901206D
:1045080002460B460148FFF7C3BF00BFC40901209C
:104518002DE9F843DDE9084507469146884629B95B
:1045280022B990F8373013F0700F3ED030F0ADFD5F
:1045380008B100240025384620F078FB97F837208A
:10454800064688B912F0700FC2F302100ED0494621
:1045580020F054FABB6908EB0001C2F302123BB920
:10456800012A09D00B460CE00020F3E73046F1E7BA
:104578001868012A038B1BD1B3F5107F38BF4FF49D
:1045880010739E1B22462B460E48B1420E4D0F4C0F
:1045980028BF31467E68AE4208BF204620F0F8F9B1
:1045A800014658B1384620F0BBFB0020BDE8F8832F
:1045B8004068074A9042D5D10E33E2E76FF00B000E
:1045C800F4E700BF7C0B0120FC090120A80B0120A7
:1045D8002C0C012030B585B0DDE908450093134661
:1045E8000A4601460348CDE9024520F0AAFB05B07A
:1045F80030BD00BFFC09012030B585B0DDE90845B4
:10460800009313460A4601460348CDE9024520F0C7
:1046180098FB05B030BD00BFC4090120F8B50646B7
:104628001C460F46E1B1154630F02FFD08B10025B4
:104638002C462A46234639460C4C77680C4D0D48C3
:10464800AF4208BF204620F0A3F9044650B1014606
:10465800304620F065FB20461EF0CAF880234382CE
:104668000020F8BD6FF00B00FBE700BFA80B01208E
:10467800FC0901207C0B01209822024B00FB023030
:1046880030F028BF681201200828024B28BF0020FC
:10469800185C704793E50A0810B588B00F4C20469F
:1046A80030F0ECFE4FF0FF324FF0FF330C4904F1CD
:1046B80018000094CDE906230023CDE90323CDE9B2
:1046C80001334FF4BC62074B1BF010FF20B108B058
:1046D800BDE8104030F0E4BC08B010BD68120120FD
:1046E800D81702205B5202082DE9F3410746884695
:1046F80016464FF0FF334FF0FF3214486FF00105B4
:104708001CF07EFB124B1C6834B910481CF03CFBB3
:10471800284602B0BDE8F081227C33789A4213D152
:10472800637C72789A4200D073B9A36813B1BA69EE
:10473800934209D1E36842463946204600933346FE
:104748006568A847051EE0DB2468DDE7540A0120F8
:10475800E83A0120F8B50F4616461D460446D0B182
:10476800CBB1142200211EF013F86560277466741B
:104778004FF0FF324FF0FF3308481CF041FB084B65
:104788001A6822605A681C6002B95C6003481CF011
:10479800FBFA0020F8BD6FF01500FBE7540A012072
:1047A800E83A012002460B4601481CF029BB00BF2D
:1047B800180A012001481CF0E7BA00BF180A0120B6
:1047C8002822002110B504461DF0E2FF4FF0FF300B
:1047D8004FF0FF31FFF7E6FF054B1A6822605A6871
:1047E8001C6002B95C60BDE81040FFF7E3BF00BF82
:1047F800F83A01202DE9F04F87B01D468B46144644
:10480800BDF84430129EBDF840700290039376B311
:1048180096F98C00FEF786FD804630461FF0D9FCDD
:1048280001904FF0FF304FF0FF31FFF7BBFF844B93
:104838001B68002B7FD0D3F80090039A92FA92FA63
:104848001FFA8AF20492ABB9FFF7B4FF4FF0FF30BA
:104858004FF0FF31FFF7A6FF7A4BD3F80080B8F18D
:10486800000F6CD1FFF7A6FF6FF0010043E0B046E0
:104878000196D6E7198C029A914214D193F8221026
:10488800594510D193F8231001F004009DB150B19F
:104898002888012807D19889012804D1D5F804C0AF
:1048A8001869844509D0B9F1000F46D0D9F800102D
:1048B8004B468946C7E70028F5D1D889049A904223
:1048C800F1D101F00201CCB10029ECD021880129F5
:1048D800E9D199880129E6D1606899688842E2D1CE
:1048E80079BAD88889B28842DDD19B69ABB9FFF71C
:1048F80061FF6FF06F0007B0BDE8F08F0029D2D1DB
:10490800019A002AECD098690028E9D005931FF095
:1049180060FC059B0028E3D0C5E7B8F1000FE6D09E
:10492800B3F88A100A05E2D593F98C00FEF7FAFC71
:104938008045B8D1DBE799467FE74946B8E759682B
:10494800D8F8002088451A6008BF5A600023C8F8C4
:104958000030FFF72FFF002C69D02388012B68D186
:104968000822214608F104001DF007FF6368B3F12F
:10497800000918BF4FF001094FEA491949F0020927
:104988009DB12B88012B54D10822294608F10C002F
:104998001DF0F3FE6B680BB149F0400949F00409BA
:1049A8001CB122882B889A4243D127B17FBA49F09B
:1049B8000809A8F80670039B1BB149F01009A8F86C
:1049C8000EA0139B88F82390C8F81430149B88F81D
:1049D80022B0C8F81C30029BC8F81860A8F820302C
:1049E800159B0BB1C3F8008098F823304FF0FF30C7
:1049F8004FF0FF3143F0010388F82330FFF7D2FE70
:104A08000F4B1A68C8F800205A68C3F800800AB922
:104A1800C3F80480FFF7CEFE30461FF0DDFB98F8A0
:104A2800243060F30003002088F8243063E7A146AF
:104A3800A6E74046FFF7C4FE6FF015005BE700BF2E
:104A4800F03A0120F83A01201B4B984210B5044671
:104A58002BD3A033984228D890F82330DB0727D5EA
:104A68004FF0FF314FF0FF30FFF79CFE134B002152
:104A78001A6852B1944215D1226869B959681A6006
:104A88008C4200D15A6000232360FFF793FE204632
:104A9800FFF796FE002010BD0A605A68944208BFCE
:104AA8005960F0E711461268E3E76FF01500F2E786
:104AB8006FF00100EFE700BF003B0120F03A012052
:104AC8002DE9F04F89B005460E469046039390F8BD
:104AD8003730D0F81890C3F302130493013B012B2D
:104AE80003D9022009B0BDE8F08F112A42D1039BF7
:104AF8001B681A880292B3F802B0049B012B57D1A5
:104B08003768002107F10C042046FEF7F9FC8246BD
:104B180000283BD0029B9B45E3D031680B6903F02A
:104B2800F003E02B48D048464FF000091031FEF75B
:104B380063FC05904FF0FF304FF0FF31FFF732FE76
:104B480000276F4BBA461C684FF0FF330693002CC2
:104B580037D1BAF1000F40F0A580FFF72BFEB9F16D
:104B6800000F00F0BC80002FBBD0284620F02DF8A5
:104B78000020B7E7062A04D1039B1B68002BB8D195
:104B8800AFE74FF0000BCDF808B0B6E7FEF7E4FF4B
:104B9800FA6803689A42BDD021465046FEF72CFCBD
:104BA8003368DA681B699A42B4D00028B5D0B1E7F7
:104BB800002399460593BDE700234FF001090593AB
:104BC800B8E7A369002B3FD194F82230002B4AD1D3
:104BD800238C434545D1E38813B1029A934240D1CF
:104BE800E3890BB15B453CD194F8233099070ED586
:104BF80095F83720A188C2F30212914231D10129D8
:104C080005D1A2681AB13168C9688A4229D15A0700
:104C18000ED595F83720A189C2F30212914220D10E
:104C2800012905D122691AB1316809698A4218D166
:104C380003F07803069A9A4213DAB9F1000F16D1F5
:104C48001BB2A24606930CE0B3F88A201005BBD528
:104C5800AA6993F98C000792FEF764FB079A8242CF
:104C6800B2D0246873E7049A9342B1D0F9E74FF4BD
:104C78007A720023284620F088FA074610B9FFF711
:104C880099FD2EE7E3690146324620460093039BCF
:104C9800D4F814C0E047022802D138461FF095FF27
:104CA8004F46DEE7DAF81440DAF81CB0FFF782FD69
:104CB800B9F1000F11D0002F7FF457AF002C3FF44B
:104CC80010AF039B324629465046CDF800B0A047A6
:104CD800831E58425841400004E7002CF1D1059B3F
:104CE800002B7FF4FEAEB8F1060F03D1284621F061
:104CF80026F8F6E603222846114620F092FBF0E655
:104D0800F03A01200A4A002310B5C2E90033094AE3
:104D1800184611461446013328320860042B02D085
:104D280008461146F7E7044B044AC3E9002410BDBE
:104D3800F03A0120003B0120F83A0120783B01209D
:104D4800024B002208210248FFF704BDE75202087F
:104D5800A03B012010B504461FF017FF084B204662
:104D68001B6853B19847002802DA20461FF02DFF30
:104D78002046BDE810401FF028BF1EF054FEF2E7A1
:104D8800B83B012010B500F5E0740849204630F022
:104D98008EFC074B0A2221461B68064823EAE37368
:104DA800BDE8104083FB02231CF0AABA235D020869
:104DB800C43B0120001301202DE9F04105888CB087
:104DC800012D2BD14C8810224688D0F8048005A8E4
:104DD8004F6800211DF0DCFCADF82E40124CADF8F8
:104DE8002C602378CDE9098723B910210F481DF0DD
:104DF800E5FC257010220D4905A81DF0BEFC01AA8E
:104E08001C2105A81BF036F9019C30F0A0FC084BCA
:104E1800584304EB90100CB0BDE8F0810CB0BDE82D
:104E2800F041FDF753B800BFAF0E0220B00E0220CC
:104E3800A08601002DE9F04190F84F320446DB07C7
:104E48001ED500F1900704F12806384630F03DFCE5
:104E58004FF0FF324FF0FF33304620F096FD04F15B
:104E6800180020F025FD054630465DB920F0CCFE3F
:104E7800A26972B994F84F3262F3000384F84F3292
:104E8800BDE8F08120F0C0FEA5F11C001FF09DFEDA
:104E9800EEE70923B4F8442239460548C4F8243219
:104EA8000A23BDE8F041A2FB03231CF029BA00BF86
:104EB8000013012010B50446FFF7BCFF04F5E070AD
:104EC80030F003FC43F69822002304F59071024861
:104ED8001CF016FA0A2010BD0013012070B500F16D
:104EE800280604464FF0FF324FF0FF33304620F0DB
:104EF8004CFDA569002D4BD030461C3D20F084FEAA
:104F080094F84F32D80716D4284620F072FD437B18
:104F1800102B31D003F0EF02082A2DD05A072BD4DA
:104F280028464FF47A72002320F02FF9054600280E
:104F38004AD1002070BDD4F82432002B5AD04FF447
:104F48007A720023284620F020F930B1FFF702FFDB
:104F5800D4F82432013BC4F8243294F84F32D907EC
:104F6800E7D5B4F844320A22A3FB022304F19001E6
:104F780021481CF0C5F9DCE730464FF0FF324FF00E
:104F8800FF3320F002FD04F1180020F091FC18B95D
:104F9800304620F039FECCE7A0F11C05304620F061
:104FA80033FE284620F0CCFC06462846FFF7D2FE02
:104FB80094F84F32DB07D4D4002EBAD0A369002B63
:104FC800B7D000220023D1E720F0BAFC06462846D5
:104FD800FFF7C0FE04F1A00030F0A5FB0843E7D1BD
:104FE8000923C4F8243294F84F3243F0010384F8BB
:104FF8004F32DDE701209DE7001301202DE9F8433A
:105008000546A0F5D8744FF0FF324FF0FF33A5F5F1
:10501800A277444820F0B9FC0022002338461BF050
:1050280069FF064600286AD1A5F5C4774FF0FF331B
:105038004FF0FF32384620F0A8FC6368186B18B1AF
:10504800FFF702FD63681E6300236268A5F5907888
:10505800A5F5CC791364404684F8303230F035FB3E
:105068004FF0FF324FF0FF33384620F08EFC4846B1
:1050780020F01EFC06463846002E43D120F0C4FD21
:10508800A5F1C00030F021FBA0681FF09EFDE0688C
:105098001FF09BFDA5F1900030F017FB05F1100003
:1050A80030F013FBA5F1600030F00FFBA5F13000E4
:1050B80030F00BFB404630F008FBA5F1F00030F073
:1050C80004FB384620F0A0FD60681FF095F8164BE9
:1050D80066601A6852B1944221D12268CEB95968E3
:1050E8001A608C4200D15A600023236021460F4881
:1050F8002FF0A5FF0B48BDE8F84320F085BD1FF051
:1051080064FD89E720F080FDA6F11C001FF05DFD1D
:10511800A6E732605A68944208BF5E60E4E7164624
:105128001268D7E7900A0120BC3B0120E009012062
:1051380070B5BFF35B8F00F128060446D0F82C3217
:105148004FF0FF324FF0FF3300F50B75BFF35B8F65
:10515800304620F01AFC94F84F329A0707D56FF3BF
:10516800410384F84F3204F13C001BF045FF304600
:1051780020F04AFDBFF35B8F55E8003F013B45E84F
:105188000032002AF8D1BFF35B8F33B904F5D87128
:105198000248BDE8704030F073BA70BD00130120BA
:1051A80037B54FF0FF334FF0FF320546544820F033
:1051B800ECFB0023002201A90193002351481BF0B6
:1051C8003DF9044600287CD101464FF41472019839
:1051D8001DF0DEFA4FF47A700021FFF791F9019B78
:1051E800D86000287AD04FF47A700021FFF780F950
:1051F800019B9860002871D003F1280030F0C5F8B1
:1052080001986C3030F03AF901983C304FF0FF3299
:10521800214630F08BF9019854300122114630F0C4
:1052280085F901980122384980F84D4280F83022EA
:105238004FF00622C0F83442C0E98F2290F84F227E
:1052480022F00A0280F84F224FF6FF72C0E90644A6
:10525800A0F84622903030F02AFA01982B4900F540
:10526800907030F024FA0198294900F5E07030F088
:105278001EFA01982749F03030F019FA01982649AA
:10528800C03030F014FA0198244900F5A87030F0C5
:105298000EFA0198224900F5C07030F008FA01981A
:1052A800204900F5D87030F0BEF9019800F50B7070
:1052B80020F0C5FC019B1C4A1C60516859B9C2E921
:1052C8000033019BBBB96FF00B040D4820F09CFC28
:1052D800204603B030BD0B605360F2E7019BD868ED
:1052E80020B11FF072FC019B0022DA600199054889
:1052F8002FF0A5FEE7E75D6000242B64E5E700BF1B
:10530800900A0120E0090120EB5C02082F5D0208E9
:105318003B5D0208E1560008155C0208815500084B
:10532800315F020805500008BC3B012070B50446F7
:1053380088B0036C0020CDE906001BB96FF015009A
:1053480008B070BD93F830020128F7D11962B4F89B
:105358008A30C3F3C203012BADF81830EED1636A6B
:105368000BB11B680793638C658D62605EBA206B16
:105378006DBAADF81A30FFF767FBB4F88A2004F16C
:105388003003B4F88800B6B2ADB212F480729DF85A
:10539800181018BF04F12802CDE90443044BCDE9E5
:1053A8000056CDE9024306ABFFF724FAC8E700BF71
:1053B800156A00082DE9F04F984690F88E308BB0AA
:1053C800044613F0010F436889464FF47A704FF092
:1053D80000011546B3F88A204FF00603CDE9000115
:1053E800C2F3C20214BF182114212069FFF7F2F892
:1053F8000646002800F0B98025B1A9681FF090FC86
:105408000023AB6096F83730C3F30213012B40F04A
:10541800878004F5037304F5FA72314660681EF05C
:10542800CBFF051E06DA30461FF0CFFB28460BB02F
:10543800BDE8F08F0DF10C0A05AF4FF0140B3046A4
:1054480051460397CDF810B01FF0E0FE054610B99D
:105458006FF06805E7E75A4600211DF099F9B4F89E
:10546800F2312B80B4F80A326B8005222B7B62F371
:1054780007132B7394F88E3085F80D9003F0010311
:1054880013442A7B63F307122A73B4F83E325BBADB
:10549800EB8198FA88F8C5F8048019F0100F03D04A
:1054A800D4F838321BBAAB60514630461FF0CCFEF8
:1054B800051EB8DB94F88E30DB071AD5042339466D
:1054C8003046CDF814A006931FF0A0FE054600282C
:1054D800BED0204620F007FD83B21BBA43F4806398
:1054E80043F002032B60394630461FF0ADFE051E1F
:1054F80099DB30461FF000FC96F83730C3F30213EF
:10550800012B0DD10621304620F0C7F8051E8ADB95
:10551800174B1A683AB130460BB0BDE8F04F104748
:105528006FF015057FE7F26106F11C03E2696AB9BD
:10553800C4E90633304620F003FA50B100220023B4
:1055480004F190010B481BF0AFFE6FE71360E361B5
:10555800F0E72046FFF7C2FC00283FF467AF6FF082
:105568007301204620F089FB60E76FF068055DE76E
:10557800B83B012000130120F8B5A0F59477A0F5F9
:10558800A8754FF0FF324FF0FF330646384620F03B
:10559800FCF9D5F8343200221021013B2846FFF7E8
:1055A80009FF284620F057FBB5F842425CBB95F846
:1055B8004E32B5F844223E2B9CBF013385F84E325B
:1055C80095F84E32124DA3F12000C3F120019C4002
:1055D80002FA00F022FA01F19A4000230443501E17
:1055E80044EA010444F1FF3185420A4873EB0101A2
:1055F8003CBF1C46084A0A23A2FB032103FB0413F1
:1056080031461BF07DFE3846BDE8F84020F0FCBA74
:10561800BFD4010000130120C0D4010070B5046C90
:10562800002C51D004F128054FF0FF334FF0FF3222
:10563800284620F0AAF994F83032033B012B3AD8D7
:10564800D4F82062BEB194F84F320A2204F1F00176
:105658001F4843F0040384F84F32B4F84432A3FBE4
:1056680002231BF04DFE284620F0CEFA2046FFF715
:105678005FFD002070BD174B0A2204F5E071144845
:105688001B6823EAE37383FB02231BF039FED4F87B
:105698003422D4F828321121204613443246FFF729
:1056A80089FE20B9D4F834320133C4F834320523E2
:1056B80084F83032D7E794F84F329A0744BF6FF333
:1056C800410384F84F32CEE76FF00100D2E700BF04
:1056D80000130120C43B0120F8B5A0F1C806044618
:1056E8004FF0FF33A0F1F0054FF0FF32304620F0C5
:1056F8004CF994F85C31082B09D9304620F084FA2B
:1057080028466FF07301BDE8F84020F0B6BA002BC8
:1057180054D114F8683C2846DA074CBF34F86C7C3E
:105728004FF4067720F0DFFBB84240F3848014F88A
:10573800683CDB0740F1848034F86C3C5B00D4F8AB
:10574800382102EBD272B3EB620F4FEA620013DD2D
:1057580014F8683C2846DF074CBF34F86C7C4FF4DB
:10576800067720F0C0FBB8426DDD14F8683CD80716
:105778006DD534F86C0C400080B214F8683CA4F87D
:1057880058012846D9074CBF34F86C7C4FF406778B
:1057980020F0A9FBB8425DDD14F8683CDA075DD556
:1057A80034F86C0CA4F85601284620F08BF828B180
:1057B80000220023A4F19C0020F0C0F80123002758
:1057C800284684F84131C4F8387120F0C2FB94F8B7
:1057D8005C110131C9B284F85C11002841D194F8F8
:1057E8005F315B0742D5D4F83071002F3ED1294B89
:1057F8000A2204F1D00128481B6823EAE37383FBDB
:1058080002231BF07DFD0523D4F84421112184F8DF
:1058180040312846D4F8383113443A46FFF7CAFDD8
:1058280020B9D4F844310133C4F844313046BDE8D6
:10583800F84020F0E9B9284620F055FB43007EE700
:105848004FF486637BE7284620F04DFB93E74FF43F
:10585800866092E7284620F046FBA3E74FF40670DF
:10586800A0E73D3002D184F84171DFE70829B4F898
:1058780054310DDD0A222146074883FB02231BF021
:105888003FFDD3E703EB630301328A42FADBF1E71A
:105898000022FAE7C43B0120001301203D4B2DE90B
:1058A800F74FD3F8009004460D461746B9F1000F9C
:1058B80004D0C847022003B0BDE8F08F43685B6B93
:1058C800002BF7D0C368D2F800A09B68002B5ED0ED
:1058D800DA68002A5BD01B8A002B58D0084620F0D3
:1058E80088F8E268436891681BBA8E6908460AEB33
:1058F800030B0193ABEB0602009220F055F8009AD7
:105908008046019B824233D232B146441146284632
:10591800A6EB0B081FF0D5F9E368A86899681CF096
:1059280078FFE368002204F1C0009A602FF0CDFEF2
:105938003B68284643443B601FF0DEF995F8373052
:10594800A86843F0010385F8373020F02DF839684E
:10595800411A28461FF02BFA39682046494220F0A0
:10596800D1FB04F16C0029462FF0B4FD0020A2E71A
:10597800A6EB0A06F61A002E09DC0846FCF7CEFB51
:10598800E36804F1C000C3F808902FF09EFE4FF0C2
:105998000008CDE7B43B0120F8B5044600252046B1
:1059A8001FF09FFF061E08DD94F84F3219070FD528
:1059B800204620F0CEFA051EF1DAD4F8203204F1A0
:1059C800F00604F5807023BB2FF0ADFE2846F8BD25
:1059D800D4F82832002BEBDD94F888302046DA071B
:1059E8004CBFB4F884704FF4067720F07CFAB842C4
:1059F80008DD94F88830DB0708D5B4F884008642BF
:105A0800D6DADAE7204620F06EFAF8E74FF40670A7
:105A1800F5E72FF088FE0843D8D10023B4F84422D4
:105A28003146044884F84C320A23A2FB03231BF0B6
:105A380067FCCBE7001301202DE9F04F044697B02F
:105A48000D46C1B989460026B04604F128034FF037
:105A5800FF3204F1280004934FF0FF331FF095FF45
:105A680094F83032C3B90226049820F0CDF83046B5
:105A780017B0BDE8F08F08464FF000091FF0B9FFD6
:105A880080460028DFD0067B90F80D90360909F093
:105A98003F09053EB600D8E7B8F1000F27D098F8BF
:105AA8000C304F2B6ED80421204620F038FA6FF0C6
:105AB800670A012302260293676807B13F6B04F166
:105AC8006C090498D4F8148020F09EF8002F40F058
